{
  "_format": "hh-sol-artifact-1",
  "contractName": "HelloType",
  "sourceName": "contracts/Hello.sol",
  "abi": [
    {
      "inputs": [],
      "name": "getContractInfo",
      "outputs": [
        {
          "internalType": "string",
          "name": "",
          "type": "string"
        },
        {
          "internalType": "bytes",
          "name": "",
          "type": "bytes"
        },
        {
          "internalType": "bytes",
          "name": "",
          "type": "bytes"
        }
      ],
      "stateMutability": "pure",
      "type": "function"
    }
  ],
  "bytecode": "0x6080604052348015600f57600080fd5b506117ab8061001f6000396000f3fe608060405234801561001057600080fd5b506004361061002b5760003560e01c80637cc1f86714610030575b600080fd5b610038610050565b604051610047939291906101dd565b60405180910390f35b60608060606040518060400160405260058152806020017f48656c6c6f0000000000000000000000000000000000000000000000000000008152506040518060200161009b906100de565b6020820181038252601f19601f82011660405250604051806020016100bf906100eb565b6020820181038252601f19601f82011660405250925092509250909192565b610d708061022a83390190565b6107dc80610f9a83390190565b600081519050919050565b600082825260208201905092915050565b60005b83811015610132578082015181840152602081019050610117565b60008484015250505050565b6000601f19601f8301169050919050565b600061015a826100f8565b6101648185610103565b9350610174818560208601610114565b61017d8161013e565b840191505092915050565b600081519050919050565b600082825260208201905092915050565b60006101af82610188565b6101b98185610193565b93506101c9818560208601610114565b6101d28161013e565b840191505092915050565b600060608201905081810360008301526101f7818661014f565b9050818103602083015261020b81856101a4565b9050818103604083015261021f81846101a4565b905094935050505056fe6080604052604051806020016040528060008152506000908161002291906104b3565b507fffffffffffffffffffffffffffffffffffffffffffffffffffffffffffffffff600160006101000a81548160ff021916908360000b60ff1602179055507fffffffffffffffffffffffffffffffffffffffffffffffffffffffffffffffff6002556001600360006101000a81548160ff02191690831515021790555073d918f784bf508b20e3c13be414483ca5e305f589600360016101000a81548173ffffffffffffffffffffffffffffffffffffffff021916908373ffffffffffffffffffffffffffffffffffffffff16021790555060405180602001604052806040518060400160405280600281526020017f61610000000000000000000000000000000000000000000000000000000000008152508152506007600082015181600001908161015091906104b3565b50505060405180602001604052806040518060400160405280600381526020017f6161610000000000000000000000000000000000000000000000000000000000815250815250600860008201518160000190816101ae91906104b3565b505050600360019054906101000a900473ffffffffffffffffffffffffffffffffffffffff16600960006101000a81548173ffffffffffffffffffffffffffffffffffffffff021916908373ffffffffffffffffffffffffffffffffffffffff160217905550600360019054906101000a900473ffffffffffffffffffffffffffffffffffffffff1673ffffffffffffffffffffffffffffffffffffffff1631600a5534801561025d57600080fd5b50610585565b600081519050919050565b7f4e487b7100000000000000000000000000000000000000000000000000000000600052604160045260246000fd5b7f4e487b7100000000000000000000000000000000000000000000000000000000600052602260045260246000fd5b600060028204905060018216806102e457607f821691505b6020821081036102f7576102f661029d565b5b50919050565b60008190508160005260206000209050919050565b60006020601f8301049050919050565b600082821b905092915050565b60006008830261035f7fffffffffffffffffffffffffffffffffffffffffffffffffffffffffffffffff82610322565b6103698683610322565b95508019841693508086168417925050509392505050565b6000819050919050565b6000819050919050565b60006103b06103ab6103a684610381565b61038b565b610381565b9050919050565b6000819050919050565b6103ca83610395565b6103de6103d6826103b7565b84845461032f565b825550505050565b600090565b6103f36103e6565b6103fe8184846103c1565b505050565b5b81811015610422576104176000826103eb565b600181019050610404565b5050565b601f82111561046757610438816102fd565b61044184610312565b81016020851015610450578190505b61046461045c85610312565b830182610403565b50505b505050565b600082821c905092915050565b600061048a6000198460080261046c565b1980831691505092915050565b60006104a38383610479565b9150826002028217905092915050565b6104bc82610263565b67ffffffffffffffff8111156104d5576104d461026e565b5b6104df82546102cc565b6104ea828285610426565b600060209050601f83116001811461051d576000841561050b578287015190505b6105158582610497565b86555061057d565b601f19841661052b866102fd565b60005b828110156105535784890151825560018201915060208501945060208101905061052e565b86831015610570578489015161056c601f891682610479565b8355505b6001600288020188555050505b505050505050565b6107dc806105946000396000f3fe608060405234801561001057600080fd5b50600436106100a95760003560e01c80634df7e3d0116100715780634df7e3d0146101545780636957e6ea14610172578063767800de146101a2578063969e9d0c146101c0578063e5aa3d58146101de578063edf0099b146101fc576100a9565b8063016a3738146100ae578063070660e5146100ca5780630add6ef2146100fa57806319ff1d211461011857806338cc483114610136575b600080fd5b6100c860048036038101906100c391906104a7565b61022c565b005b6100e460048036038101906100df919061050a565b610245565b6040516100f19190610550565b60405180910390f35b610102610269565b60405161010f91906105a6565b60405180910390f35b61012061027c565b60405161012d9190610651565b60405180910390f35b61013e61030a565b60405161014b9190610694565b60405180910390f35b61015c610312565b60405161016991906106ca565b60405180910390f35b61018c6004803603810190610187919061050a565b610325565b60405161019991906106ca565b60405180910390f35b6101aa610359565b6040516101b79190610694565b60405180910390f35b6101c861037f565b6040516101d591906106f4565b60405180910390f35b6101e6610385565b6040516101f3919061072b565b60405180910390f35b6102166004803603810190610211919061050a565b610398565b6040516102239190610651565b60405180910390f35b8073ffffffffffffffffffffffffffffffffffffffff16ff5b6004818154811061025557600080fd5b906000526020600020016000915090505481565b600360159054906101000a900460f01b81565b6000805461028990610775565b80601f01602080910402602001604051908101604052809291908181526020018280546102b590610775565b80156103025780601f106102d757610100808354040283529160200191610302565b820191906000526020600020905b8154815290600101906020018083116102e557829003601f168201915b505050505081565b600030905090565b600360009054906101000a900460ff1681565b6006818154811061033557600080fd5b9060005260206000209060209182820401919006915054906101000a900460ff1681565b600360019054906101000a900473ffffffffffffffffffffffffffffffffffffffff1681565b60025481565b600160009054906101000a900460000b81565b600581815481106103a857600080fd5b9060005260206000200160009150905080546103c390610775565b80601f01602080910402602001604051908101604052809291908181526020018280546103ef90610775565b801561043c5780601f106104115761010080835404028352916020019161043c565b820191906000526020600020905b81548152906001019060200180831161041f57829003601f168201915b505050505081565b600080fd5b600073ffffffffffffffffffffffffffffffffffffffff82169050919050565b600061047482610449565b9050919050565b61048481610469565b811461048f57600080fd5b50565b6000813590506104a18161047b565b92915050565b6000602082840312156104bd576104bc610444565b5b60006104cb84828501610492565b91505092915050565b6000819050919050565b6104e7816104d4565b81146104f257600080fd5b50565b600081359050610504816104de565b92915050565b6000602082840312156105205761051f610444565b5b600061052e848285016104f5565b91505092915050565b6000819050919050565b61054a81610537565b82525050565b60006020820190506105656000830184610541565b92915050565b60007fffff00000000000000000000000000000000000000000000000000000000000082169050919050565b6105a08161056b565b82525050565b60006020820190506105bb6000830184610597565b92915050565b600081519050919050565b600082825260208201905092915050565b60005b838110156105fb5780820151818401526020810190506105e0565b60008484015250505050565b6000601f19601f8301169050919050565b6000610623826105c1565b61062d81856105cc565b935061063d8185602086016105dd565b61064681610607565b840191505092915050565b6000602082019050818103600083015261066b8184610618565b905092915050565b600061067e82610449565b9050919050565b61068e81610673565b82525050565b60006020820190506106a96000830184610685565b92915050565b60008115159050919050565b6106c4816106af565b82525050565b60006020820190506106df60008301846106bb565b92915050565b6106ee816104d4565b82525050565b600060208201905061070960008301846106e5565b92915050565b60008160000b9050919050565b6107258161070f565b82525050565b6000602082019050610740600083018461071c565b92915050565b7f4e487b7100000000000000000000000000000000000000000000000000000000600052602260045260246000fd5b6000600282049050600182168061078d57607f821691505b6020821081036107a05761079f610746565b5b5091905056fea2646970667358221220310d25815a6580bec7aaf49934491e7439aeff126c13de44a10d946d1d85a02c64736f6c634300081c0033608060405234801561001057600080fd5b50600436106100a95760003560e01c80634df7e3d0116100715780634df7e3d0146101545780636957e6ea14610172578063767800de146101a2578063969e9d0c146101c0578063e5aa3d58146101de578063edf0099b146101fc576100a9565b8063016a3738146100ae578063070660e5146100ca5780630add6ef2146100fa57806319ff1d211461011857806338cc483114610136575b600080fd5b6100c860048036038101906100c391906104a7565b61022c565b005b6100e460048036038101906100df919061050a565b610245565b6040516100f19190610550565b60405180910390f35b610102610269565b60405161010f91906105a6565b60405180910390f35b61012061027c565b60405161012d9190610651565b60405180910390f35b61013e61030a565b60405161014b9190610694565b60405180910390f35b61015c610312565b60405161016991906106ca565b60405180910390f35b61018c6004803603810190610187919061050a565b610325565b60405161019991906106ca565b60405180910390f35b6101aa610359565b6040516101b79190610694565b60405180910390f35b6101c861037f565b6040516101d591906106f4565b60405180910390f35b6101e6610385565b6040516101f3919061072b565b60405180910390f35b6102166004803603810190610211919061050a565b610398565b6040516102239190610651565b60405180910390f35b8073ffffffffffffffffffffffffffffffffffffffff16ff5b6004818154811061025557600080fd5b906000526020600020016000915090505481565b600360159054906101000a900460f01b81565b6000805461028990610775565b80601f01602080910402602001604051908101604052809291908181526020018280546102b590610775565b80156103025780601f106102d757610100808354040283529160200191610302565b820191906000526020600020905b8154815290600101906020018083116102e557829003601f168201915b505050505081565b600030905090565b600360009054906101000a900460ff1681565b6006818154811061033557600080fd5b9060005260206000209060209182820401919006915054906101000a900460ff1681565b600360019054906101000a900473ffffffffffffffffffffffffffffffffffffffff1681565b60025481565b600160009054906101000a900460000b81565b600581815481106103a857600080fd5b9060005260206000200160009150905080546103c390610775565b80601f01602080910402602001604051908101604052809291908181526020018280546103ef90610775565b801561043c5780601f106104115761010080835404028352916020019161043c565b820191906000526020600020905b81548152906001019060200180831161041f57829003601f168201915b505050505081565b600080fd5b600073ffffffffffffffffffffffffffffffffffffffff82169050919050565b600061047482610449565b9050919050565b61048481610469565b811461048f57600080fd5b50565b6000813590506104a18161047b565b92915050565b6000602082840312156104bd576104bc610444565b5b60006104cb84828501610492565b91505092915050565b6000819050919050565b6104e7816104d4565b81146104f257600080fd5b50565b600081359050610504816104de565b92915050565b6000602082840312156105205761051f610444565b5b600061052e848285016104f5565b91505092915050565b6000819050919050565b61054a81610537565b82525050565b60006020820190506105656000830184610541565b92915050565b60007fffff00000000000000000000000000000000000000000000000000000000000082169050919050565b6105a08161056b565b82525050565b60006020820190506105bb6000830184610597565b92915050565b600081519050919050565b600082825260208201905092915050565b60005b838110156105fb5780820151818401526020810190506105e0565b60008484015250505050565b6000601f19601f8301169050919050565b6000610623826105c1565b61062d81856105cc565b935061063d8185602086016105dd565b61064681610607565b840191505092915050565b6000602082019050818103600083015261066b8184610618565b905092915050565b600061067e82610449565b9050919050565b61068e81610673565b82525050565b60006020820190506106a96000830184610685565b92915050565b60008115159050919050565b6106c4816106af565b82525050565b60006020820190506106df60008301846106bb565b92915050565b6106ee816104d4565b82525050565b600060208201905061070960008301846106e5565b92915050565b60008160000b9050919050565b6107258161070f565b82525050565b6000602082019050610740600083018461071c565b92915050565b7f4e487b7100000000000000000000000000000000000000000000000000000000600052602260045260246000fd5b6000600282049050600182168061078d57607f821691505b6020821081036107a05761079f610746565b5b5091905056fea2646970667358221220310d25815a6580bec7aaf49934491e7439aeff126c13de44a10d946d1d85a02c64736f6c634300081c0033a2646970667358221220f99569b6df506baff48993dd6547ce4839ad5a864579c0cd6b173a13594ccc1564736f6c634300081c0033",
  "linkReferences": {},
  "deployedLinkReferences": {}
}